S00F0000524649445F52462E73726563F9
S11300000C9405010C942D010C942D010C942D01DC
S11300100C942D010C942D010C942D010C942D01A4
S11300200C942D010C942D010C942D010C942D0194
S11300300C942D010C942D010C942D010C942D0184
S11300400C94F9050C942D010C9430040C94620466
S11300500C942D010C942D010C942D010C942D0164
S11300600C942D010C942D0154696D656F75740009
S11300704D49464152455F526561642829206661B5
S1130080696C65643A20005043445F417574686547
S11300906E7469636174652829206661696C65649E
S11300A03A200000000008000201000003040700D9
S11300B0000000000000000102040810204080013C
S11300C0020408102001020408102004040404049B
S11300D004040402020202020203030303030300F2
S11300E0000000230026002900000000002500284D
S11300F0002B0000000000240027002A0011121326
S11301001415160A0B0C0D0E0F00010203040555FD
S11301106E6B6E6F776E206572726F720041204D48
S11301204946415245205049434320726573706FDC
S11301306E6465642077697468204E414B2E0054C8
S11301406865204352435F4120646F6573206E6F7E
S113015074206D617463682E00496E76616C696405
S113016020617267756D656E742E00496E746572D8
S11301706E616C206572726F7220696E207468659E
S113018020636F64652E2053686F756C64206E6FF6
S1130190742068617070656E2E0041206275666619
S11301A06572206973206E6F742062696720656EC2
S11301B06F7567682E0054696D656F757420696E7C
S11301C020636F6D6D756E69636174696F6E2E0067
S11301D0436F6C6C697373696F6E206465746563D7
S11301E07465642E004572726F7220696E20636FAD
S11301F06D6D756E69636174696F6E2E00537563FE
S1130200636573732E00DD02920411241FBECFEFC9
S1130210D8E0DEBFCDBF11E0A0E0B1E0E4EDF3E251
S113022002C005900D92A839B107D9F722E0A8E9D8
S1130230B1E001C01D92A139B207E1F711E0C5E0B8
S1130240D1E004C02197FE010E94CA11C330D10736
S1130250C9F70E94C0040C94E8110C9400008CEBC4
S113026091E00E94EC0C60E78CEB91E00E944D0D54
S1130270E6EBF1E08FEF8083818382838383848341
S113028085830895EF92FF920F931F93CF938CEB86
S113029091E00E943310811102C0C0E024C08CEBB5
S11302A091E00E943E0BC82F8823B9F38FEBE82E10
S11302B081E0F82E02EE11E0F70161917F01F8016F
S11302C061938F0170E040E150E086EE91E00E947E
S11302D0F205F1E0063E1F0779F760E871E086EE6B
S11302E091E00E944F058C2FCF911F910F91FF90A9
S11302F0EF9008950F931F93CF93DF931F92CDB781
S1130300DEB782E189830EEB11E026EB31E047E0B2
S113031060E68CEB91E00E94A810182F882319F056
S113032067E870E00FC09E012F5F3F4F40ED51E042
S113033064E08CEB91E00E940711182F882381F070
S113034060E770E086EE91E00E940E05812F0E9426
S11303504011BC0186EE91E00E943D0580E007C09B
S113036062E171E086EE91E00E944F0581E00F901A
S1130370DF91CF911F910F910895ECE5F1E0319158
S1130380DC012D91CD01321306C0B1E0E836FB0744
S1130390B1F781E0089580E008958CEB91E00E942C
S11303A065108CEB91E00C9403118EE991E00E94AE
S11303B0C80A63E08EE991E00E947A0A60E071E085
S11303C08EE991E00E94A90946E051E061E08EE9DE
S11303D091E00E94C3098EE991E00C94340A61E033
S11303E082E00E94130761E08DE00E94130760E041
S11303F08CE00E94130761E08BE00E94130761E028
S11304008AE00E94130761E089E00E94130761E01B
S113041087E00E94130761E088E00E94130761E00F
S113042082E00E944F0726E040E855E260E070E079
S113043086EE91E00E94CB030E9471110E942F016D
S11304400E94D5016DE171E086EE91E00C944F05B8
S1130450CF92DF92EF92FF9244E050E062EE71E0BF
S113046088E991E00E94D91110929D018EE991E0F2
S11304700E94F00846E068E971E08EE991E00E948C
S113048078098EE991E00E94340A0E9443066B01C8
S11304907C018EE991E00E949909811116C00E94A5
S11304A04306DC01CB018C199D09AE09BF098134D7
S11304B09D40A340B10568F368E670E086EE91E0E4
S11304C00E943D0582E090E010C046E068E971E0DA
S11304D08EE991E00E949D0980919D01811103C0E4
S11304E083E090E002C080E090E0FF90EF90DF9026
S11304F0CF90089560E082E00E944F076CE371E0C2
S113050086EE91E00E944F0568EB7BE080E090E08E
S11305100E94680661E082E00C944F070E94420149
S1130520882309F448C067E271E086EE91E00E94F6
S11305304F050E947A01882361F180ED91E00E94C9
S1130540BD01882319F161E371E086EE91E00E9418
S11305504F0561E08AE00E944F0760E087E00E9457
S11305604F070E942802892B71F480919C018823F3
S113057019F00E947A0213C061E082E00E944F07E2
S113058069E371E008C063E471E005C069E471E007
S113059002C062E571E086EE91E00E944F0561E0E1
S11305A082E00E944F0760E08AE00E944F0761E00A
S11305B087E00E944F070C94CD01ECEBF1E081E958
S11305C091E0918380838AE0868789E0878780E948
S11305D092E0918B808B83E5828B138A48E050E014
S11305E067E070E08EE991E00C94D308FC01918DF2
S11305F0228D892F90E0805C9F4F821B91098F731D
S113060099270895FC01918D828D981731F0828D80
S1130610E80FF11D858D90E008958FEF9FEF089509
S1130620FC01918D828D981761F0828DDF01A80FF6
S1130630B11D5D968C91928D9F5F9F73928F90E018
S113064008958FEF9FEF0895FC01538D448D252F5E
S113065030E0842F90E0821B930B541710F0CF9658
S113066008950197089588E894E0892B49F080E083
S113067090E0892B29F00E94880481110C940000D9
S11306800895FC01848DDF01A80FB11DA35ABF4F4B
S11306902C91848D90E001968F739927848FA6897D
S11306A0B7892C93A089B1898C9180648C93938DA4
S11306B0848D981306C00288F389E02D80818F7D94
S11306C080830895EF92FF920F931F93CF93DF934C
S11306D0EC0181E0888F9B8D8C8D981305C0E8898F
S11306E0F989808185FD24C0F62E0B8D10E00F5F03
S11306F01F4F0F731127E02E8C8DE8120CC00FB61C
S113070007FCFACFE889F989808185FFF5CFCE010E
S11307100E944103F1CF8B8DFE01E80FF11DE35AD6
S1130720FF4FF0820B8FEA89FB898081806207C0CA
S1130730EE89FF896083E889F989808180648083F8
S113074081E090E0DF91CF911F910F91FF90EF90A6
S11307500895CF93DF93EC01888D8823C9F0EA894B
S1130760FB89808185FD05C0A889B9898C9186FDA6
S11307700FC00FB607FCF5CF808185FFF2CFA889A3
S1130780B9898C9185FFEDCFCE010E944103E7CF5B
S1130790DF91CF910895CF92DF92EF92FF921F9352
S11307A0CF93DF93EC016A017B01122FE889F98969
S11307B082E080834115514E61057105B1F060E01E
S11307C079E08DE390E0A70196010E94A811DA0177
S11307D0C9010197A109B109B695A7959795879580
S11307E09C01211580E13807A8F0E889F989108275
S11307F060E874E88EE190E0A70196010E94A811D8
S1130800DA01C9010197A109B109B695A795979590
S113081087959C01EC85FD853083EE85FF852083DB
S1130820188EEC89FD891083EA89FB8980818061B7
S11308308083EA89FB89808188608083EA89FB89D7
S1130840808180688083EA89FB8980818F7D8083B1
S1130850DF91CF911F91FF90EF90DF90CF9008959B
S11308601F920F920FB60F9211242F938F939F9381
S1130870EF93FF93E091F601F091F7018081E0910D
S1130880FC01F091FD0182FD12C090818091FF0175
S11308908F5F8F7320910002821751F0E091FF0166
S11308A0F0E0EA51FE4F958F8093FF0101C08081F3
S11308B0FF91EF919F918F912F910F900FBE0F9009
S11308C01F9018951F920F920FB60F9211242F9319
S11308D03F934F935F936F937F938F939F93AF93C4
S11308E0BF93EF93FF9386EE91E00E944103FF9143
S11308F0EF91BF91AF919F918F917F916F915F9194
S11309004F913F912F910F900FBE0F901F9018950C
S113091086EE91E00E94F60221E0892B09F420E0A2
S1130920822F0895E6EEF1E01382128288EE93E0BE
S1130930A0E0B0E084839583A683B78380E791E049
S11309409183808385EC90E09587848784EC90E0A4
S11309509787868780EC90E0918B808B81EC90E088
S1130960938B828B82EC90E0958B848B86EC90E069
S1130970978B868B118E128E138E148E0895089584
S11309800E94AF060E94BF040E94EF01C3E3D3E0BC
S11309900E948E022097E1F30E943303F9CFCF9295
S11309A0DF92EF92FF920F931F93CF93DF936C012B
S11309B07A018B01C0E0D0E0CE15DF0581F0D801CB
S11309C06D918D01D601ED91FC910190F081E02DA6
S11309D0C6010995892B11F02196EECF7E01C7013E
S11309E0DF91CF911F910F91FF90EF90DF90CF9007
S11309F008956115710579F0FB0101900020E9F774
S1130A003197AF01461B570BDC01ED91FC9102803D
S1130A10F381E02D099480E090E00895EF92FF9235
S1130A200F931F93CF93DF938C017B01C0E0D0E041
S1130A30F701EC0FFD1F6491662361F0D801ED917D
S1130A40FC910190F081E02DC8010995892B11F0EA
S1130A502196EECFCE01DF91CF911F910F91FF90A0
S1130A60EF900895DC01ED91FC910190F081E02D6F
S1130A7009946EE771E00C94F9040F931F93CF93DC
S1130A80DF93EC010E940E058C01CE010E94390512
S1130A90800F911FDF91CF911F910F9108950F93B4
S1130AA01F93CF93DF93EC010E94F9048C01CE01D4
S1130AB00E943905800F911FDF91CF911F910F91F3
S1130AC008958F929F92AF92BF92EF92FF920F93ED
S1130AD01F93CF93DF93CDB7DEB7A1970FB6F894EA
S1130AE0DEBF0FBECDBF7C01FA01CB0119A22230BB
S1130AF008F42AE08E010F5D1F4F822E912CA12C49
S1130B00B12CBF01A50194010E94A811F901CA01E9
S1130B10015011096A3010F4605D01C0695CD801AC
S1130B206C93232B242B252B61F7B801C7010E945A
S1130B30F904A1960FB6F894DEBF0FBECDBFDF91C6
S1130B40CF911F910F91FF90EF90BF90AF909F9026
S1130B508F900895CF92DF92EF92FF920F931F939D
S1130B60CF93DF932115310581F4DC01ED91FC91E4
S1130B700190F081E02D642FDF91CF911F910F91AF
S1130B80FF90EF90DF90CF9009942A30310501F562
S1130B9077FF1DC06A017B01EC016DE20E94320502
S1130BA08C0144275527BA014C195D096E097F0948
S1130BB02AE0CE010E946105800F911FDF91CF9141
S1130BC01F910F91FF90EF90DF90CF9008952AE04E
S1130BD0DF91CF911F910F91FF90EF90DF90CF9015
S1130BE00C9461059A01AB01770F660B770B0C949B
S1130BF0AA051F920F920FB60F9211242F933F93C1
S1130C008F939F93AF93BF938091840290918502B9
S1130C10A0918602B09187023091830223E0230FD2
S1130C202D3720F40196A11DB11D05C026E8230F20
S1130C300296A11DB11D2093830280938402909398
S1130C408502A0938602B0938702809188029091D6
S1130C508902A0918A02B0918B020196A11DB11D57
S1130C608093880290938902A0938A02B0938B02A6
S1130C70BF91AF919F918F913F912F910F900FBE94
S1130C800F901F9018953FB7F89480918802909127
S1130C908902A0918A02B0918B0226B5A89B05C057
S1130CA02F3F19F00196A11DB11D3FBFBA2FA92FE7
S1130CB0982F8827820F911DA11DB11DBC01CD0164
S1130CC042E0660F771F881F991F4A95D1F7089550
S1130CD08F929F92AF92BF92CF92DF92EF92FF9248
S1130CE06B017C010E9443064B015C01C114D104D9
S1130CF0E104F10401F10E94A7110E944306DC0102
S1130D00CB0188199909AA09BB09883E9340A1051A
S1130D10B10560F321E0C21AD108E108F10888EEB8
S1130D20880E83E0981EA11CB11CC114D104E104F7
S1130D30F10419F7DBCFFF90EF90DF90CF90BF90D5
S1130D40AF909F908F9008958230910538F0880F6E
S1130D50991F880F991F05970197F1F708957894C3
S1130D6084B5826084BD84B5816084BD85B58260AC
S1130D7085BD85B5816085BDEEE6F0E0808181604A
S1130D808083E1E8F0E0108280818260808380814A
S1130D9081608083E0E8F0E0808181608083E1EB22
S1130DA0F0E0808184608083E0EBF0E0808181600A
S1130DB08083EAE7F0E080818460808380818260C0
S1130DC080838081816080838081806880831092A9
S1130DD0C1000895833081F028F4813099F0823085
S1130DE0A1F008958730A9F08830B9F08430D1F4A7
S1130DF0809180008F7D03C0809180008F778093E5
S1130E008000089584B58F7702C084B58F7D84BD3A
S1130E1008958091B0008F7703C08091B0008F7DDA
S1130E208093B0000895CF93DF9390E0FC01E954E0
S1130E30FF4F2491FC01E553FF4F8491882361F116
S1130E4090E0880F991FFC01ED50FF4FC591D4919C
S1130E50FC01E751FF4FA591B491611109C09FB7FF
S1130E60F8948881209582238883EC912E230BC0EB
S1130E70623061F49FB7F8948881322F30958323D0
S1130E808883EC912E2B2C939FBF06C08FB7F894C8
S1130E90E8812E2B28838FBFDF91CF9108951F9374
S1130EA0CF93DF93282F30E0F901ED55FF4F849164
S1130EB0F901E954FF4FD491F901E553FF4FC4916F
S1130EC0CC23C1F0162F81110E94EA06EC2FF0E02A
S1130ED0EE0FFF1FE751FF4FA591B4919FB7F89410
S1130EE0111104C08C91D095D82302C0EC91DE2B53
S1130EF0DC939FBFDF91CF911F910895CF93DF9330
S1130F00282F30E0F901ED55FF4F8491F901E954A0
S1130F10FF4FD491F901E553FF4FC491CC2391F0D5
S1130F2081110E94EA06EC2FF0E0EE0FFF1FE15260
S1130F30FF4FA591B491EC91ED2381E090E021F471
S1130F4080E002C080E090E0DF91CF9108958EBDF3
S1130F5000000DB407FEFDCF8EB50895CF93DF9347
S1130F60EC018CB58F7D8CBD8CB5837F8CBD8CB52D
S1130F708C7F8CBD8DB581608DBD8A810E944F07A9
S1130F808C899D89DF91CF910C94A406FC0120816A
S1130F903181828193812817390719F0822F0C94AB
S1130FA04F07089560E00C94AE0761E00C94AE071F
S1130FB01F93CF93DF93EC01162F0E94D207812F4A
S1130FC08F710E94A7078FEF0E94A707182FCE01E9
S1130FD00E94D507812FDF91CF911F910895CF9261
S1130FE0DF92EF92FF920F931F93CF93DF937C01D5
S1130FF0162F6A01C22F0E94D207812F8F7180623F
S11310000E94A707D82F8601CC2339F0F8018191DB
S11310108F010E94A707C150F7CFC7010E94D507CF
S11310208D2FDF91CF911F910F91FF90EF90DF9063
S1131030CF9008950F931F93CF93DF938C01C62F06
S1131040D42F0E94D2078C2F8F7180620E94A70731
S1131050C82F8D2F0E94A707C8010E94D5078C2F87
S1131060DF91CF911F910F910895BF92CF92DF929C
S1131070EF92FF920F931F93CF93DF938C01B62EC1
S1131080C72EF22EFC01C781DC2F4C1708F4D42F95
S1131090F8018085811102C0CD1B01C0C0E0C801E8
S11310A00E94D2078F2D0E94A707D82EEB2CFC2C70
S11310B0DD2339F0F70181917F010E94A707D15008
S11310C0F7CFCC2329F080E00E94A707C150F9CFC5
S11310D0C8010E94D5078D2DDF91CF911F910F91EB
S11310E0FF90EF90DF90CF90BF900895BF92CF9282
S11310F0DF92EF92FF920F931F93CF93DF938C01B4
S1131100B62EC72EFC01C781DC2F4C1708F4D42F50
S1131110F8018085811102C0CD1B01C0C0E0C80167
S11311200E94D20781E60E94A707D82EEB2CFC2C44
S1131130DD2341F08FEF0E94A707F70181937F0120
S1131140D150F6CFCC2329F08FEF0E94A707C150CE
S1131150F9CFC8010E94D5078D2DDF91CF911F9142
S11311600F91FF90EF90DF90CF90BF9008951F9361
S1131170CF93DF93EC01162F0E94D207812F0E9498
S1131180A707182FCE010E94D507812FDF91CF9199
S11311901F91089562EE0C94B70861EE0C94B708A1
S11311A06FEF0C94B708FC0171836083538342830F
S11311B0168280E28783108685E0868785E090E04A
S11311C0A0E0B0E0848B958BA68BB78B1186089535
S11311D06D3710F4462F01C04DE765E00C941A08F2
S11311E0CF93DF93EC0160E00E94C6078889998958
S11311F00E94A4066DE1CE010E94D80781FF07C0BA
S1131200888999890E94A406CE010E94CD0860E0D5
S1131210CE010E94D807482F4E7F60E0CE010E9485
S11312201A0862E0CE010E94D807E9E0F1E0E491F7
S113123041E050E001C0440FEA95EAF7482B62E030
S1131240CE01DF91CF910C941A08CF93DF93EC0178
S113125060E00E94D80781FD0EC0482F426060E024
S1131260CE010E941A0865E070E080E090E0DF9112
S1131270CF910C946806DF91CF9108950F93CF938B
S1131280DF93EC01211102C020EA01C020EBCE0162
S11312900E943508002339F061E0CE01DF91CF913F
S11312A00F910C94C607DF91CF910F9108950F937E
S11312B0CF93DF93EC0101E00E943E09CE010E942E
S11312C0D0088073D9F360E0CE010E94C60740E7DE
S11312D067E0CE010E941A0884FF05C0CE010E9477
S11312E0CD0880E001C081E0DF91CF910F91089596
S11312F020E00C9457090F931F93CF93DF938C0135
S1131300EB0167E10E94D80780FD0BC0209759F0DC
S1131310C8010E94D00890E09595879587708883CE
S113132002C080E001C081E0DF91CF911F910F9155
S1131330089560E070E00C947B09CF93DF93EC0197
S11313400E94760840E767E0CE01DF91CF910C94CC
S11313501A080F931F93CF93DF93EC018B012E8513
S1131360AB016AE00E94EF072E85A80160E1CE017F
S11313700E94EF074F8161E1CE01DF91CF911F9170
S11313800F910C941A08EF92FF920F931F93CF932F
S1131390DF938C01C62F7A01611108C0FC014685D8
S11313A050E0B70109960E94D01105C0673008F0DB
S11313B037C0613041F4EC2FF0E0ED5FFE4F6491F3
S11313C0F801268506C0E62FF0E0ED5FFE4F64913C
S11313D021E0A701C8010E94EF07D0E0FE01E3501D
S11313E0FF4F6491F8014781C8010E941A0862E026
S11313F0C8010E94D807FE01E75FFE4FE49141E077
S113140050E001C0440FEA95EAF7482B62E0C801B6
S1131410DF91CF911F910F91FF90EF900C941A08D8
S1131420DF91CF911F910F91FF90EF9008950F934B
S11314301F93CF938C01C62F62E00E94D807EC2F34
S1131440F0E0E75FFE4FE49121E030E001C0220FBD
S1131450EA95EAF72095422F482362E0C801CF912C
S11314601F910F910C941A08CF93DF93EC010E9403
S1131470250960E0CE010E94D807482F416060E052
S1131480CE010E941A0840E767E0CE010E941A08C4
S113149061E0CE010E94C6078985882349F02E8524
S11314A0AE01475F5F4F6AE0CE010E94EF0704C0C0
S11314B060E0CE010E94170A6DE1CE010E94D807B8
S11314C081FF05C0CE01DF91CF910C94CD08DF914F
S11314D0CF910895CF93DF93EC010E94D20780E56A
S11314E00E94A70783E70E94A707CE01DF91CF914F
S11314F00C94D5070F931F93CF938C01C62F66E0EE
S11315000E94D807887FC43018F4CC0FCF5F01C085
S1131510C7E04C2F482B66E0C801CF911F910F9173
S11315200C941A080F931F93CF93DF938C01D62F3B
S113153066E00E94D807C82FC77DD23031F4C0625C
S11315408BE990E0A0E0B0E00CC0D13029F085E553
S113155090E0A0E0B0E005C0C86081E490E0A0E0C5
S1131560B0E0F801808B918BA28BB38B4C2F66E09B
S1131570C8010E941A0866E0C8010E94D80791E0D9
S1131580C81390E0892FDF91CF911F910F91089597
S11315901F93CF93DF93EC01888199812A813B814A
S11315A08217930719F061E00E9413078A819B81D7
S11315B0288139812817390719F061E00E9413073F
S11315C00E94711160E0CE010E94C60761E0CE0165
S11315D00E94AE0765E070E080E090E00E9468063B
S11315E04CE060E0CE010E941A084FE564E0CE01B1
S11315F00E941A0862E0CE010E94920A882311F028
S113160081E08E8366E0CE010E94D807182F60E047
S1131610CE010E94920ACE010E946A0A40E06DE166
S1131620CE010E941A0840E06CE1CE010E941A0823
S1131630188640E767E0CE010E941A086CE4CE01E8
S11316400E94E808CE010E94CA08CE010E94CD087B
S1131650CE010E94250960E0CE010E94D807482FE0
S11316604E7F60E0CE010E941A08115081E01E3FB7
S113167008F080E0DF91CF911F910895BC016E5F67
S11316807F4FDC01ED91FC910190F081E02D40E071
S1131690099591E0811190E0892F089520918E029F
S11316A0222399F04FB7F89420918E02213059F4F7
S11316B02DB320938C023DB320918D0220952323DA
S11316C02DBB4FBF02C040938C028CBD9DBD0895BD
S11316D080918E02882361F09FB7F89420918E0246
S11316E080918C02213019F48DBB9FBF08958FBF68
S11316F00895AF92BF92CF92DF92EF92FF920F9331
S11317001F93CF93DF936C01A42E79016068B62EEA
S1131710FC01828993890E944E0B60E0F601868564
S11317200E944F07AA948B2D0E94A7070023A1F0C3
S1131730CFEFD0E001C0CC0F0A95EAF78B2D0E94C1
S1131740A7072C2F2095F701908192238C23892BB6
S1131750F701808311E001C010E0812F90E0E701E0
S1131760C80FD91F1A1530F48B2D0E94A707888340
S11317701F5FF3CF80E00E94A707888361E0F60132
S113178086850E944F07DF91CF911F910F91FF90A3
S1131790EF90DF90CF90BF90AF900C94680B0F93B5
S11317A01F93CF93DF93EC01062F142F8A899B8913
S11317B00E944E0B60E08E850E944F07802F0E948E
S11317C0A707812F0E94A70761E08E850E944F071B
S11317D0DF91CF911F910F910C94680BDF92EF92E0
S11317E0FF920F931F93CF93DF938C01C62FF42E98
S11317F0D22EE32EFC01828993890E944E0B60E075
S1131800F80186850E944F078C2F0E94A707CD2DD3
S1131810DE2DCE018F0D911D7C01CE15DF0521F04B
S113182089910E94A707F9CF61E0F80186850E949B
S11318304F07DF91CF911F910F91FF90EF90DF90B1
S11318400C94680B1F93CF93DF93EC01162F8A89B6
S11318509B890E944E0B60E08E850E944F07812F6A
S113186080680E94A70780E00E94A707182F61E004
S11318708E850E944F070E94680B812FDF91CF91C4
S11318801F9108950F9341110E94790B0F910895B0
S11318900F931F93CF93DF938C01D62FC42F0E94F5
S11318A0220C482F4C2B6D2FC801DF91CF911F9133
S11318B00F910C94CF0B0F931F93CF93DF938C0155
S11318C0D62FC42F0E94220CC0954C2F48236D2F75
S11318D0C801DF91CF911F910F910C94CF0BCF9240
S11318E0DF92EF92FF920F931F93CF93DF93EC015C
S11318F06B01142F790140E062E00E94CF0B44E0B9
S11319006AE0CE010E94CF0B40E864E1CE010E9460
S1131910CF0B9601412F62E1CE010E94EE0B43E012
S113192062E0CE010E94CF0B08E813E16AE0CE0129
S11319300E94220C82FF13C040E062E0CE010E94AC
S1131940CF0B64E4CE010E94220CF701808362E491
S1131950CE010E94220CF701818380E004C0015073
S1131960110921F783E0DF91CF911F910F91FF902F
S1131970EF90DF90CF9008950F931F93CF938C0136
S11319804FE062E00E94CF0BC3E062E370E080E0CE
S113199090E00E94680662E0C8010E94220C84FF65
S11319A002C0C15091F7CF911F910F910895CF9329
S11319B0DF93EC0168E20E94220C982F937093301D
S11319C041F0482F436068E2CE01DF91CF910C943F
S11319D0CF0BDF91CF910895CF93DF93EC0161E0BA
S11319E08E850E94130761E08E850E944F078F85C4
S11319F08F3F09F449C060E00E9413078F850E945D
S1131A007E07892B09F040C061E08F850E9413078F
S1131A1061E08F850E944F0762E370E080E090E010
S1131A200E94680640E064E2CE010E94CF0B40E0D1
S1131A3066E2CE010E94CF0B46E268E4CE010E942A
S1131A40CF0B40E864E5CE010E94CF0B49EA66E57E
S1131A50CE010E94CF0B43E068E5CE010E94CF0B7C
S1131A6048EE6AE5CE010E94CF0B40E46AE2CE0163
S1131A700E94CF0B4DE362E2CE010E94CF0BCE0158
S1131A80DF91CF910C94D70CCE010E94BC0CCACF2D
S1131A906CE40E94220C807708950F931F93CF93D8
S1131AA08C01C62F0E94480D8C1771F040E76CE43E
S1131AB0C8010E945B0C4C2F40776CE4C801CF91A5
S1131AC01F910F910C94480CCF911F910F91089581
S1131AD03F924F925F926F927F928F929F92AF92BA
S1131AE0BF92CF92DF92EF92FF920F931F93CF9307
S1131AF0DF9300D0CDB7DEB73C01162F942E290119
S1131B00A114B10419F0F501408101C040E0342E64
S1131B10F0E18F9E300C112440E062E0C3010E948A
S1131B20CF0B4FE768E0C3010E94CF0B40E864E1AC
S1131B30C3010E94CF0B9201402F62E1C3010E94B6
S1131B40EE0B432D6AE1C3010E94CF0B412F62E0EB
S1131B50C3010E94CF0B1C3029F440E86AE1C301A1
S1131B600E94480C00ED17E068E0C3010E94220CBB
S1131B70982F992139F480FD03C001501109A1F770
S1131B8083E065C06CE0C3010E94220C182F8371AE
S1131B9009F05AC0E114F104F9F0C114D104E1F0E0
S1131BA064E1C3010E94220CF6019081981708F4A5
S1131BB045C08083082D9701482F62E1C3010E942C
S1131BC0420C68E1C3010E94220C8770A114B10485
S1131BD021F0F501808301C080E013FD31C0E114E0
S1131BE0F10481F1C114D10469F19E89992351F161
S1131BF0F6014081413021F4843041F58FEF27C054
S1131C00423020F1811122C042509E012F5F3F4F8C
S1131C10B701C3010E946F0C811119C0F6018081C4
S1131C20E80EF11CF70132979081898198130EC058
S1131C30319690818A81981309C004C084E007C05A
S1131C4082E005C080E003C081E001C087E00F901E
S1131C500F90DF91CF911F910F91FF90EF90DF9044
S1131C60CF90BF90AF909F908F907F906F905F9038
S1131C704F903F9008958F92AF92BF92CF92DF9290
S1131C80EF92FF920F931F93AF928C2C5701680130
S1131C907901042F9B0140E36CE00E94680D0F90D2
S1131CA01F910F91FF90EF90DF90CF90BF90AF9076
S1131CB08F9008952F923F924F925F926F927F92EE
S1131CC08F929F92AF92BF92CF92DF92EF92FF9248
S1131CD00F931F93CF93DF93CDB7DEB72C970FB637
S1131CE0F894DEBF0FBECDBF413508F004C1342ED9
S1131CF03B014C0140E86CE10E945B0C22242394DC
S1131D0032E0231691F083E02816E1F091E02912E5
S1131D10F6C083E989833320D1F081E0F301908117
S1131D20953008F480E0D12C17C0F5E9F98333200D
S1131D3081F081E0F3019081983008F480E073E051
S1131D40D72E0AC087E9898366E0D62E04C0D12C39
S1131D5002C053E0D52E80E0B32CF8E0DF9EB0182B
S1131D601124B7FCB12C882321F098E89B8333E03D
S1131D7001C032E021E09B2D977009F420E09B2DF7
S1131D80959595959595290F31F4882309F490C07C
S1131D9038E0B30E8DC0811102C094E001C093E01D
S1131DA0291708F4922FED2DF0E03196E60DF71D7A
S1131DB0232F4191A1E0B0E0AC0FBD1FA20FB11DD4
S1131DC04C932F5F422F431B491798F3DECF8111A9
S1131DD0DCC09FE19B150CF494C080E2B82E90E720
S1131DE09A839B818C8189279D8189279E8189275C
S1131DF08F839E01285F3F4F47E0BE016F5F7F4F97
S1131E00C4010E946F0C8111C0C01B86E3E0EA8705
S1131E10CE0107962C0199E09C87CB844C2D4295EA
S1131E20407F4C0D6AE1C4010E94CF0BA12CCE016E
S1131E300B967C018E01065F1F4F92014C85BE01FB
S1131E406F5F7F4FC4010E943B0E823009F0BFCF09
S1131E506CE1C4010E94220C85FD4FC08F7109F40E
S1131E6080E290E02B2D0B2C000C330B2817390744
S1131E700CF045C001979C012770332733E09595FA
S1131E8087953A95E1F78F5F91E0211101C090E0C9
S1131E90890FE1E0F0E0EC0FFD1FE80FF11D81E098
S1131EA090E001C0880F2A95EAF79081892B8083FE
S1131EB08FE18B150CF493CF9B2D97709B878B2D03
S1131EC08595859585958E5F292FE0E18E9F200D60
S1131ED011242A8321E0911101C020E0280F2C87CE
S1131EE044244394512C4C0E5D1E480E511CF9E0C1
S1131EF0F81BFA8792CF86E048C082E046C085E0AE
S1131F0044C08B818838F1F182E094E0ED2DF0E05B
S1131F103196E60DF71D980FA1E0B0E0AC0FBD1FA0
S1131F20A80FB11D2C9121938F5F9813F5CF8A854B
S1131F30833021F58B85811121C09E012D5F3F4F98
S1131F4041E0B201C4010E946F0C81111EC09B814B
S1131F50F2018181981314C09C818281981310C06E
S1131F60808182FF02C02394CBCEF3018387822D2C
S1131F70880F820D8F5F808380E007C081E005C0F9
S1131F8087E003C083E093E0C1CF2C960FB6F894AA
S1131F90DEBF0FBECDBFDF91CF911F910F91FF9098
S1131FA0EF90DF90CF90BF90AF909F908F907F90F5
S1131FB06F905F904F903F902F9008954F925F9253
S1131FC06F927F928F929F92AF92CF92EF92FF92F5
S1131FD00F931F93CF93DF9300D0CDB7DEB76A83FF
S1131FE04115510539F1F9016081623018F1490157
S1131FF02A013C0140E86CE10E945B0C87E0898384
S1132000A12CC12CCE0101967C018401920141E0F6
S1132010BE016E5F7F4FC3010E943B0E81110DC054
S1132020F4018081823041F481E09981911105C0ED
S113203080E003C084E001C081E00F900F90DF9145
S1132040CF911F910F91FF90EF90CF90AF909F9001
S11320508F907F906F905F904F9008959A01AB019D
S113206066E20C94DE0F0F931F93CF93DF9300D09F
S11320701F92CDB7DEB78C0182E08B8340E064E22F
S1132080C8010E94CF0B40E066E2C8010E94CF0B5A
S113209046E268E4C8010E94CF0BAE014D5F5F4F7A
S11320A0BE016F5F7F4FC8010E942E10982F81E000
S11320B0992319F0923009F080E00F900F900F905F
S11320C0DF91CF911F910F9108958F929F92AF92BC
S11320D0CF92EF92FF920F931F93CF93DF9300D091
S11320E000D0CDB7DEB74C0180E589831A829E010A
S11320F02D5F3F4F42E0BE016F5F7F4FC4010E94DE
S11321006F0C811116C0A12CC12CE12CF12C00E024
S113211010E020E030E044E0BE016F5F7F4FC40177
S11321200E943B0E833021F0811103C081E001C085
S113213080E00F900F900F900F90DF91CF911F913F
S11321400F91FF90EF90CF90AF909F908F90089554
S11321508F92AF92BF92CF92DF92EF92FF920F9342
S11321601F93CF93DF93CDB7DEB72C970FB6F894B8
S1132170DEBF0FBECDBFDC0169834A83B901CE0146
S113218003969E01275F3F4FFB014191BF01FC0174
S11321904193CF01E217F307B9F7F8019081E92FD2
S11321A0F0E033970E0F1F1FCE010D96F8014191F9
S11321B08F01F90141939F01E817F907B9F71F92BD
S11321C0812CA12CB12CC12CD12CE12CF12C0CE0B4
S11321D09E012F5F3F4F40E16EE0CD010E94680DEC
S11321E00F902C960FB6F894DEBF0FBECDBFDF91D3
S11321F0CF911F910F91FF90EF90DF90CF90BF9000
S1132200AF908F90089548E060E10C945B0C8F923E
S11322109F92AF92CF92EF92FF920F931F93CF931F
S1132220DF934115510501F1F90170817231E0F03C
S11322308901EA014C0180E3888369839A012E5F56
S11322403F4F42E0BE01C4010E946F0C81110DC0DA
S1132250AA24A394C12CE12CF12C9E0144E0BE01DC
S1132260C4010E943B0E01C084E0DF91CF911F9115
S11322700F91FF90EF90CF90AF909F908F90089523
S11322800C9442118430D9F050F4813091F030F143
S1132290823091F08330F9F486EB91E00895863032
S11322A0A1F080F08730A1F08F3FA9F48DE191E097
S11322B0089585EE91E0089580ED91E008958AE90E
S11322C091E008958BE691E0089589E591E0089501
S11322D08FE391E008958FE091E008958DEF91E010
S11322E00895CF93CFB7F89480918F02811127C0BE
S11322F0E5EDF0E08491E1ECF0E09491E82FF0E07A
S1132300EE0FFF1FED50FF4FA591B491EC91E9231F
S113231021F461E08AE00E944F0761E08AE00E94B4
S113232013078CB580618CBD8CB580648CBD61E075
S11323308DE00E94130761E08BE00E9413078091F7
S11323408F028F5F80938F02CFBFCF91089508953E
S1132350A1E21A2EAA1BBB1BFD010DC0AA1FBB1FA5
S1132360EE1FFF1FA217B307E407F50720F0A21B17
S1132370B30BE40BF50B661F771F881F991F1A9484
S113238069F760957095809590959B01AC01BD01AE
S1132390CF010895EE0FFF1F0590F491E02D0994ED
S11323A0FB01DC0102C001900D9241505040D8F76E
S11323B00895FB01DC014150504048F001900D921A
S11323C00020C9F701C01D9241505040E0F7089524
S10723D0F894FFCFAB
S11323D457696E44000057696E5200004D617300E2
S11323E40000426C6F636B20526561640052656146
S11323F4647900474F5400446574656374696F6E6F
S113240400417474656D7074004E6F20416363659C
S11324147373004572726F72004E6F206D61746342
S1132424680054727920616761696E0001020304D3
S113243405060708090AFF0B0C0D0E0F0000000027
S11324446203CF042403A903F602100302030D0A52
S1132454006E616E00696E66006F766600000000AF
S10B2464005A0E33103E0B0078
S9030000FC
